:100000000C94B5050C94FC050C94FC050C94FC05B3
:100010000C94FC050C94FC050C94FC050C94FC055C
:100020000C94FC050C94FC050C94F30D0C94C50E7B
:100030000C94A11C0C94FC050C94FC050C94FC0580
:100040000C94FC050C94FC050C94FC050C94FC052C
:100050000C94FC050C94151D0C94FC050C94FC05EB
:100060000C94FC050C94FC050C94FC050C94FC050C
:100070000C94FC050C94FC050C94FC050C94FC05FC
:100080000C94FC050C94FC050C94FC050C94FC05EC
:100090000C94FC050C94FC050C94FC050C94FC05DC
:1000A0000C94FC050C94FC050C94FC05320F540FC9
:1000B0004210540F4210990FBC0F4210111024101F
:1000C00074137413A113A113FC13381430163016D3
:1000D000501430164B154B150616301630161C16DC
:1000E000F1A1293A3B3C3D3E3F4041424344454912
:1000F0004A4B351E1F20212223242526272D2E2A58
:10010000004C2B00141A0815171C180C12132F3052
:10011000284EC000041607090A0B0D0E0F333432A7
:10012000004DE100641D1B0619051110363738E536
:100130000052E000E3E20000002C000000E639502D
:100140004F51010101010101010101010101010101
:1001500001AB0101010101010101010101010101E5
:1001600000AC01004B524E010101010101010101EE
:1001700001B0010050514F010101010101010101D4
:1001800000A80100010101010101010101010101BA
:1001900000A90100010100000001000000010101AF
:1001A00001AA0A002530313662003A20002530329B
:1001B00058000A722F6320303132333435363738E5
:1001C000394142434445460A000A0025303258006E
:1001D000626F756E6365213A20005B735D004B654D
:1001E00079626F6172642073746172742E0A0055B3
:1001F000534220636F6E666967757265642E0A00EC
:100200005B575D005B535D005B525D005B445D00CE
:100210005B435D0024035A00650061006C006900C7
:100220006F0073004D006100730074006500720080
:100230007200610063006500000012034700750052
:10024000730074006100760045006B000000040339
:10025000090409027400040100A03209040000012D
:10026000030101000921110100012240000705815D
:100270000308000A09040100010301020009211119
:10028000010001224D000705820308000A0904024B
:1002900000010300000009211101000122360007BE
:1002A00005830308000A0904030002030000000993
:1002B000211101000122220007058403200001070B
:1002C0000504032000011201100100000008EDFEEA
:1002D00060600100010200010631FF0974A10109FB
:1002E00075150026FF009520750881020976150016
:1002F00026FF00952075089102C005010980A10123
:10030000850216010026B7001A01002AB7007510F1
:1003100095018100C0050C0901A1018503160100AA
:10032000269C021A01002A9C02751095018100C0CA
:1003300005010902A1010901A10005091901290509
:10034000150025019505750181029501750381014F
:100350000501093009311581257F9502750881064F
:1003600009381581257F950175088106050C0A3825
:10037000021581257F950175088106C0C005010918
:1003800006A101050719E029E71500250195087563
:10039000018102950175088101050819012905955A
:1003A0000575019102950175039101050719002951
:1003B000FF150026FF00950675088100C00A00257C
:1003C00030325820006B6579626F6172645F7265CC
:1003D000706F72743A20004C45443A2025303258F0
:1003E0000A00646F6E652E0A00626F6F746D61673C
:1003F0006963207363616E3A202E2E2E2000290A35
:10040000002575002F002575005D2800256400205B
:1004100000256400200025640020002564007C0085
:1004200025303258006D6F7573656B6579205B629E
:10043000746E7C782079207620685D287265702F34
:1004400061636C293A205B006D6B5F776865656C52
:100450005F74696D655F746F5F6D6178203D202505
:10046000640A006D6B5F776865656C5F6D61785FCE
:100470007370656564203D2025640A006D6B5F74B0
:10048000696D655F746F5F6D6178203D2025640A3A
:10049000006D6B5F6D61785F7370656564203D20F2
:1004A00025640A006D6B5F696E74657276616C20FD
:1004B0003D2025640A006D6B5F64656C6179203DA9
:1004C0002025640A006D6B5F776865656C5F7469F1
:1004D0006D655F746F5F6D6178203D2025640A0053
:1004E0006D6B5F776865656C5F6D61785F73706574
:1004F0006564203D2025640A006D6B5F74696D653D
:100500005F746F5F6D6178203D2025640A006D6B1C
:100510005F6D61785F7370656564203D2025640AB6
:10052000006D6B5F696E74657276616C203D20258D
:10053000640A006D6B5F64656C6179203D20256401
:100540000A000A00257500363A20776865656C5FF9
:1005500074696D655F746F5F6D61783A20000A00A1
:10056000257500353A20776865656C5F6D61785F49
:1005700073706565643A20000A00257500343A20DE
:1005800074696D655F746F5F6D61783A20000A0071
:10059000257500333A206D61785F73706565643A44
:1005A00020000A00257500323A20696E7465727663
:1005B000616C286D73293A20000A00257500313AD4
:1005C0002064656C6179282A31306D73293A2000E6
:1005D0000A092D2056616C756573202D0A004D3E69
:1005E000004D25643E20003F0073657420646566FD
:1005F00061756C740A00433E20007768657265205F
:1006000064656C74613A20637572736F723D256422
:100610002C20776865656C3D25640A536565206804
:100620007474703A2F2F656E2E77696B69706564EC
:1006300069612E6F72672F77696B692F4D6F7573C4
:10064000655F6B6579730A000A092D204D6F75731C
:10065000656B6579202D0A4553432F713A097175F1
:1006600069740A313A0964656C6179282A31306D00
:1006700073290A323A09696E74657276616C286D65
:1006800073290A333A096D61785F73706565640A8E
:10069000343A0974696D655F746F5F6D61780A350E
:1006A0003A09776865656C5F6D61785F7370656541
:1006B000640A363A09776865656C5F74696D655FD1
:1006C000746F5F6D61780A0A703A097072696E74AE
:1006D0002076616C7565730A643A097365742064E9
:1006E000656661756C74730A75703A092B310A641A
:1006F0006F776E3A092D310A706775703A092B31A0
:10070000300A7067646F776E3A092D31300A0A73C8
:1007100070656564203D2064656C7461202A206DDD
:1007200061785F7370656564202A20287265706542
:100730006174202F2074696D655F746F5F6D6178DF
:10074000290A003F004D3E2000433E20004C256416
:100750000A000A092D20436F6E736F6C65202D0A05
:100760004553432F713A09717569740A6D3A096DE1
:100770006F7573656B65790A000A092D204D6167F5
:100780006963202D0A643A0964656275670A783ADC
:10079000096465627567206D61747269780A6B3AE5
:1007A000096465627567206B6579626F6172640ABE
:1007B0006D3A096465627567206D6F7573650A76B9
:1007C0003A0976657273696F6E0A733A09737461D8
:1007D0007475730A633A09636F6E736F6C65206D8D
:1007E0006F64650A302D343A096C61796572302D79
:1007F00034284631302D4634290A506175733A0940
:10080000626F6F746C6F616465720A653A09656541
:1008100070726F6D0A000A002575002E6E6B726F84
:100820003A20000A002575002E737761705F6261BF
:10083000636B736C6173685F6261636B7370616338
:10084000653A20000A002575002E737761705F6796
:10085000726176655F6573633A20000A0025750052
:100860002E6E6F5F6775693A20000A002575002EAD
:10087000737761705F72616C745F726775693A203B
:10088000000A002575002E737761705F6C616C74CF
:100890005F6C6775693A20000A002575002E636158
:1008A00070736C6F636B5F746F5F636F6E74726F86
:1008B0006C3A20000A002575002E737761705F6323
:1008C0006F6E74726F6C5F636170736C6F636B3AA1
:1008D00020000A0025303258006B65796D61705F29
:1008E000636F6E6669672E7261773A20000A002591
:1008F00075002E6D6F7573653A20000A002575002E
:100900002E6B6579626F6172643A20000A0025756A
:10091000002E6D61747269783A20000A0025750016
:100920002E656E61626C653A20000A0025303258EF
:100930000064656275675F636F6E6669672E7261DA
:10094000773A20000A0025750064656661756C744D
:100950005F6C617965723A20003F0074696D657261
:100960005F72656164333228293A202530346C582F
:100970000A006B6579626F6172645F69646C653AE5
:100980002025580A006B6579626F6172645F70722E
:100990006F746F636F6C3A2025580A00686F737428
:1009A0005F6B6579626F6172645F6C65647328293F
:1009B0003A2025580A000A092D2053746174757372
:1009C000202D0A004743433A20342E392E3220414D
:1009D00056522D4C4942433A20312E382E307376F0
:1009E0006E204156525F415243483A20617672353B
:1009F0000A004F5054494F4E533A204C554641201F
:100A0000424F4F544D41474943204D4F5553454B5D
:100A100045592045585452414B455920434F4E5358
:100A20004F4C4520434F4D4D414E442034303936D4
:100A30000A004255494C443A20756E6B6E6F776ED2
:100A4000202832333A34343A3034204A756C20311D
:100A5000322032303136290A005649443A20307863
:100A60004645454428477573746176456B29205087
:100A700049443A20307836303630285A65616C69FE
:100A80006F734D6173746572726163652920564599
:100A9000523A203078303030310A00444553433ADE
:100AA00020742E6D2E6B2E206B6579626F617264DF
:100AB000206669726D7761726520666F722063755A
:100AC00073746F6D6B6579626F6172640A000A09F5
:100AD0002D2056657273696F6E202D0A000A6D6FA6
:100AE0007573653A206F66660A000A6D6F757365E7
:100AF0003A206F6E0A000A6B6579626F6172643A20
:100B0000206F66660A000A6B6579626F6172643AEB
:100B1000206F6E0A000A6D61747269783A206F6600
:100B2000660A000A6D61747269783A206F6E0A0075
:100B30000A64656275673A206F6E0A000A6465622E
:100B400075673A206F66660A000A0A626F6F746CF6
:100B50006F616465722E2E2E2000433E2000656575
:100B6000636F6E6669673A0A000011241FBECFEFFB
:100B7000DAE0DEBFCDBF04B603FE27C08091D60108
:100B80009091D701A091D801B091D9018730904BB5
:100B9000A740B04BD1F41092D6011092D701109219
:100BA000D8011092D90114BE84B7877F84BF0FB6D5
:100BB000F894A895809160008861809360001092FD
:100BC00060000FBEE0E0F8E3099511E0A0E0B1E0BD
:100BD000E2E8F3E502C005900D92A233B107D9F720
:100BE00021E0A2E3B1E001C01D92A63DB207E1F70A
:100BF0000E94220B0C94BF290C940000FF93EF93EA
:100C0000E0913201F0913301309709F00995EF91AD
:100C1000FF910895FC018591803011F0EFDFFBCF4B
:100C20000895FF27E0E230E247FF0CC0419597FFAF
:100C300009C0EDE26095709580959095611D711DDC
:100C4000811D911D27FF02C0219530E350E2AA27A4
:100C5000660F771F881F991FAA1FA41710F0A41BE7
:100C600063955A95A9F7AA3008F0A95FA05DAF93E4
:100C7000F395611571058105910541F7ED3211F488
:100C8000EF93F395F21718F43F93F395FBCF8F9101
:100C9000B5DFFA95E1F70895E991F99185918030F2
:100CA00021F0853219F0AADFF9CF089520E0E89409
:100CB00055915532C1F3503311F4689455915A331C
:100CC00048F4505390F3220F022E220F220F200DD2
:100CD000250FF4CF0EF4219589919991533619F38C
:100CE000533729F1533559F1BC0188279927E894E6
:100CF0005C3621F48991999168945591543639F470
:100D000046EF7EF077FF0DC08FEF9FEF0AC055379B
:100D10004AE039F0583540E121F0523642E009F01E
:100D20000895FF93EF937DDFEF91FF91B7CFFF938E
:100D3000EF93FC0181918030B9F360DFFBCFFF932B
:100D4000EF9368DFF1CFDF93CF93CDB7DEB7259672
:100D5000A3DFCF91DF910895E72FF0E096E0899F20
:100D6000E00DF11D112484E0EE0FFF1F8A95E1F7DD
:100D7000E60FF11DEE51FF4F84910895E82FF0E04A
:100D8000EE0FFF1FE05AF04085919491089580B3D3
:100D90008C7080BB81B38C7081BB089585B78068EF
:100DA00085BF85B7806885BF8091B701816082600B
:100DB0008093B7010E94C7068AB180748AB98BB14B
:100DC0008F6B8BB987B18F7387B988B1806C88B905
:100DD0006E98769A84B1817484B985B18E6B85B929
:100DE000E0E4F1E0A4E3B1E0119211921D921D92B2
:100DF00081E0EC34F807C1F708953F924F925F927B
:100E00006F927F928F929F92AF92BF92CF92DF921A
:100E1000EF92FF920F931F93CF93DF93CDB7DEB77F
:100E20002E970FB6F894DEBF0FBECDBF24E331E09E
:100E30003A8329833C872B8710E001E0133099F037
:100E400028F4113051F0123059F004C0143071F010
:100E5000153079F0809A88980EC0819A89980BC0D5
:100E6000849A8C9808C0859A8D9805C0869A8E9829
:100E700002C0879A8F9830EA3A95F1F71D9904C01D
:100E8000C12C40E8D42E02C0C12CD12C1C9904C026
:100E9000A12C30E4B32E02C0A12CB12C49B1042EF8
:100EA000000C550B409550954427550F441F55276E
:100EB000542F44275295550F507E4C9904C0812CD5
:100EC00080E1982E02C0812C912C199904C0612CCC
:100ED000B8E07B2E02C0612C712C4D9904C0412CCE
:100EE000A4E05A2E02C0412C512C26B1022E000C37
:100EF000330B209530952227330F221F3327322FB3
:100F00002227330F369905C080E091E09C838B83C4
:100F100002C01C821B824B9905C0A0E8B0E0BE83D2
:100F2000AD8302C01E821D824A9905C0E0E4F0E054
:100F3000F887EF8302C018861F82499904C070E2C7
:100F4000E72EF12C02C0E12CF12C489905C080E17C
:100F500090E09E878D8702C01E861D8683B1082E75
:100F6000000C990B809590958827990F881F9927D9
:100F700063E0880F991F6A95E1F71B9903C0E4E0CD
:100F8000F0E002C0E0E0F0E01A9903C062E070E037
:100F900002C060E070E03CB0329436943694A3E036
:100FA0003A223026A32DA170A9871A86A985BA8571
:100FB000CA2ADB2ACA28DB28C42AD52AC828D92865
:100FC000C628D728C428D528C22AD32A2B813C81F9
:100FD000C22AD32AAD81BE81CA2ADB2A2F81388555
:100FE000C22AD32ACE28DF28AD85BE85AC29BD29EB
:100FF0008A2B9B2B8E2B9F2B682B792BAB85BC854B
:101000008D919C9111978617970759F16D937C9359
:1010100080910001882311F18091B70180FF04C005
:1010200080ED91E00E940A068091B70180FF0EC01A
:10103000809100011F928F93ABECB1E0BF93AF930F
:101040000E94A3060F900F900F900F908091B70110
:1010500080FF04C089EC91E00E940A0685E080933D
:1010600000010E94C7061F5F2B853C852E5F3F4F06
:101070003C872B87163009F0E1CE80910001882350
:10108000C9F0815080930001882339F08FE99FE0F7
:101090000197F1F700C000000DC0E0E4F1E0A98184
:1010A000BA818D919D91BA83A98381939193A05424
:1010B000B140A9F781E02E960FB6F894DEBF0FBEBF
:1010C000CDBFDF91CF911F910F91FF90EF90DF90F7
:1010D000CF90BF90AF909F908F907F906F905F90D8
:1010E0004F903F900895E82FF0E0EE0FFF1FE05C77
:1010F000FE4F808191810895CF92DF92EF92FF920F
:101100000F931F93CF93DF9382EB91E00E940A0627
:1011100080E4E82E81E0F82EC0E0D0E09DEAC92E00
:1011200091E0D92E04EA11E0DF93CF93DF92CF92C2
:101130000E94A3068AEA91E00E940A06F7018191C3
:1011400091917F010E94301C9F938F931F930F9367
:101150000E94A30682EA91E00E940A0621968DB7BA
:101160009EB708960FB6F8949EBF0FBE8DBFC630CF
:10117000D105D1F6DF91CF911F910F91FF90EF90A4
:10118000DF90CF90089581FF02C0569A01C0569813
:101190005E9808958091570108959FB7F894109232
:1011A0004E019FBF9091CC01943009F057C09091AF
:1011B000E9009F703091EC00232F217030FD20E872
:1011C000922B24E02093E9002091EB0020FF43C004
:1011D0002091EE0027FF3FC020914C01222321F0F7
:1011E0002091E80025FF37C010924C0126E0309195
:1011F000E80035FD15C03091CC01343061F53091F7
:10120000EB0035FD28C0215021F481E080934C0192
:1012100022C0EFE9FFE03197F1F700C00000E7CF0F
:101220008093F1008091E80085FD0AC08091E8007C
:1012300080FFFCCF8091E8008E778093E80006C0A5
:101240008FB7F89421E020934E018FBF9F70909349
:10125000E90080E008959F709093E9008FEF089572
:10126000CF93DF9300D01F92CDB7DEB79C01809162
:10127000CC01843019F593E099833B832A839093C2
:10128000E9008FEF9091E800815095FD06C095ED43
:101290009A95F1F700008111F5CF8091E80085FF64
:1012A0000DC040E050E063E070E0CE0101960E9486
:1012B000E30B8091E8008E778093E8000F900F9009
:1012C0000F90DF91CF910895CF93DF9300D01F92BD
:1012D000CDB7DEB72091CC01243021F522E029835F
:1012E0009B838A8383E08093E9008FEF9091E800ED
:1012F000815095FD06C095ED9A95F1F7000081119A
:10130000F5CF8091E80085FF0DC040E050E063E03C
:1013100070E0CE0101960E94E30B8091E8008E7789
:101320008093E8000F900F900F90DF91CF91089578
:101330002091CC012430F1F422E02093E9002FEF3A
:101340003091E800215035FD06C035ED3A95F1F7B2
:1013500000002111F5CF2091E80025FF0BC040E0EF
:1013600050E065E070E00E94E30B8091E8008E772A
:101370008093E8000895CF93DF932091CC0124302F
:1013800039F521E02093E9002FEF3091E80021505A
:1013900035FD06C035ED3A95F1F700002111F5CF86
:1013A0002091E80025FF14C0EC0140E050E068E027
:1013B00070E00E94E30B8091E8008E778093E80054
:1013C00088E0FE01AFE4B1E001900D928A95E1F76B
:1013D000DF91CF91089580E192E00E940A0680910A
:1013E000CB01811109C00E94780D0E94D50D80911A
:1013F000E20084608093E20008958CE092E00E9415
:101400000A061092CB01089588E092E00C940A0637
:1014100020914D012F5F822F62E30E94542999236E
:1014200019F020934D01089510924D0180914E01C5
:10143000882371F18091CC01843041F58091E900DD
:101440008F702091EC00922F917020FD90E8892BF5
:1014500094E09093E9009091EB0090FF14C090917C
:10146000EE0097FF10C09091E80095FF03C0109226
:10147000F100F9CF9091E80090FF05C09091E8004D
:101480009E779093E8008F708093E90010924E0150
:10149000089542E061EC81E00E94F20C42E061ECD0
:1014A00082E00E94F20C42E061EC83E00E94F20CC8
:1014B00042E261EC84E00C94F20C8091CE01833026
:1014C00009F453C030F4813071F0823009F48CC0DB
:1014D00008958A3009F478C08B3009F45EC08930F1
:1014E00009F09AC020C08091CD01813A09F094C0E2
:1014F0008091E800877F8093E8008091D1019091EE
:10150000D201892B21F468E08FE491E003C060E010
:1015100080E090E070E00E942E0C8091E8008B77D4
:101520008093E80008958091CD01813209F074C064
:101530008091D1019091D201892B09F06DC08091E9
:10154000E800877F8093E8008091E80082FD05C075
:101550008091CC018111F8CF5FC08091F100809320
:1015600057018091E8008B7753C08091CD01813A7B
:1015700009F052C08091D1019091D201892B09F0DC
:101580004BC08091E800877F8093E8008091E8005D
:1015900080FFFCCF80910B0136C08091CD0181325C
:1015A000D9F58091D1019091D201892BA9F5809133
:1015B000E800877F8093E8000E94270D8091CF018B
:1015C00080930B010C9451168091CD01813221F54D
:1015D0008091E800877F8093E8000E94270D80912A
:1015E000D0018093580108958091CD01813AA1F4F2
:1015F0008091E800877F8093E8008091E80080FF79
:10160000FCCF809158018093F1008091E8008E77A3
:101610008093E8000C94270D089508950895089587
:1016200084E092E00E940A060C940F0B0E945F1C5B
:101630008091CA01882329F00E948A1C81110C9490
:10164000CD0B089584B7877F84BF0FB6F894A89513
:1016500080916000886180936000109260000FBEEE
:1016600090E080E80FB6F894809361009093610059
:101670000FBE0E940D0B0E94EC100E94780D0E947C
:10168000D50D8091E20084608093E2008DEC98E0BB
:101690000E94151C78948091CC018430E1F78FEE84
:1016A00091E00E940A060E94EE1081E091E00E9403
:1016B0005A108EED91E00E940A060E940E0B809156
:1016C000CC01853039F48AED91E00E940A060E942F
:1016D000160BF5CF0E94F410F2CF0C949F1C80E003
:1016E00092E00E940A060C946D0B292F33272330B9
:1016F0003105C9F064F42130310581F02230310523
:1017000009F043C084E790E022E532E042C0213294
:101710003105F1F02232310541F137C082E190E02C
:1017200026EC32E036C099278130910541F08230B5
:10173000910541F0892B49F5EEE4F2E005C0EAE3BA
:10174000F2E002C0E4E1F2E0849190E09F0121C068
:101750006430D8F4E62FF0E0EE0FFF1FE05EFE4F9E
:101760002081318189E090E014C0643070F470E031
:10177000FB01EE0FFF1FE85EFE4F20813181FB0170
:10178000EC5EFE4F808190E004C080E090E020E0BD
:1017900030E0FA0131832083089580E189BD82E140
:1017A00089BD09B400FEFDCF8091D8008F7D809364
:1017B000D8008091E00082608093E0008091E0009A
:1017C00081FDFCCF0895CF92DF92EF92FF920F93AD
:1017D0001F93CF93DF93EC018B016A010E94460DAA
:1017E000811133C0C114D10439F0F6018081918197
:1017F000081B190BC80FD91FE12CF12C011511057D
:1018000019F18091E80085FD16C08091E8008E777F
:101810008093E800C114D10449F0F60180819181E0
:10182000E80EF91EF182E08285E00FC00E94460DAD
:10183000882321F30AC089918093F1000150110996
:10184000FFEFEF1AFF0ADACF80E0DF91CF911F910F
:101850000F91FF90EF90DF90CF9008952091D301EA
:101860003091D4012617370748F06115710539F416
:101870002091E8002E772093E80001C0B90140E0F4
:1018800061157105A9F12091CC01222309F443C00F
:10189000253009F442C02091E80023FD40C020918A
:1018A000E80022FD32C02091E80020FFE9CF4091FE
:1018B000F3002091F20030E0342BFC01CF016115E0
:1018C000710559F02830310540F481918093F10081
:1018D000615071092F5F3F4FF1CF41E02830310552
:1018E00009F040E02091E8002E772093E800C8CF6F
:1018F0004111C9CF0AC08091CC01882361F08530A5
:1019000061F08091E80083FD0AC08091E80082FFC9
:10191000F2CF80E0089582E0089583E0089581E0A9
:1019200008952091D3013091D4012617370748F04C
:101930006115710539F42091E8002E772093E800B5
:1019400001C0B901FC0120E06115710591F18091A0
:10195000CC01882309F440C0853009F43FC0809150
:10196000E80083FD3DC08091E80082FD2FC080919A
:10197000E80080FFE9CF2091F3008091F20090E031
:10198000922B6115710559F08830910540F424912E
:101990002093F1003196615071090196F2CF21E058
:1019A000089709F020E08091E8008E778093E800A6
:1019B000CBCF2111CCCF0AC08091CC01882361F01C
:1019C000853061F08091E80083FD0AC08091E800D5
:1019D00082FFF2CF80E0089582E0089583E00895C9
:1019E00081E00895982F973058F59093E900981763
:1019F00039F07091EC002091ED005091F00003C09F
:101A0000242F762F50E021FF19C03091EB003E7F4C
:101A10003093EB003091ED003D7F3093ED0030913D
:101A2000EB0031603093EB007093EC002093ED00FD
:101A30005093F0002091EE0027FF07C09F5FD3CFA7
:101A40008F708093E90081E0089580E0089580918F
:101A5000CD0187FF11C08091E80082FD05C0809113
:101A6000CC018111F8CF11C08091E8008B770BC0B9
:101A70008091CC01882349F08091E80080FFF8CF65
:101A80008091E8008E778093E80008952091E4002B
:101A90003091E50095E64091EC00842F817040FF85
:101AA00022C08091E80080FD1CC08091CC01882379
:101AB00091F0853091F08091EB0085FD10C0409150
:101AC000E4005091E5004217530729F39A01915021
:101AD00011F784E0089582E0089583E0089581E09D
:101AE000089580E008954091E80042FFDECF089518
:101AF0000E94E60D0E94EE0DE0EEF0E08081816034
:101B00008083E8EDF0E080818F77808319BCA7EDBA
:101B1000B0E08C918E7F8C9380818F7E8083109239
:101B2000CB0108950F931F93CF93DF930E94E60D8F
:101B30000E94EE0DC8EDD0E088818F778883888180
:101B40008068888388818F7D888319BC1092CC013E
:101B50001092C8011092CA011092C90100EE10E063
:101B6000F80180818B7F808388818160888342E057
:101B700060E080E00E94F20CE1EEF0E080818E7F78
:101B80008083E2EEF0E080818160808380818860E4
:101B90008083F80180818E7F808388818061888343
:101BA000DF91CF911F910F910895E8EDF0E08081D2
:101BB0008F7E8083E7EDF0E080818160808384E028
:101BC00082BF81E08093CB010C94920DE8EDF0E0B0
:101BD00080818E7F80831092E20008951092DA0057
:101BE0001092E10008951F920F920FB60F921124E8
:101BF0002F933F934F935F936F937F938F939F9315
:101C0000AF93BF93EF93FF938091E10082FF0BC0EE
:101C10008091E20082FF07C08091E1008B7F80937A
:101C2000E1000E94080A8091DA0080FF1FC08091C5
:101C3000D80080FF1BC08091DA008E7F8093DA008D
:101C40008091D90080FF0DC080E189BD82E189BD0E
:101C500009B400FEFDCF81E08093CC010E94EB0926
:101C600005C019BC1092CC010E94FD098091E100D1
:101C700080FF19C08091E20080FF15C08091E200D2
:101C80008E7F8093E2008091E20080618093E20089
:101C90008091D80080628093D80019BC85E0809341
:101CA000CC010E94100B8091E10084FF30C0809134
:101CB000E20084FF2CC080E189BD82E189BD09B4C6
:101CC00000FEFDCF8091D8008F7D8093D800809159
:101CD000E1008F7E8093E1008091E2008F7E80930F
:101CE000E2008091E20081608093E2008091C8016F
:101CF000882311F084E007C08091E30087FD02C0D3
:101D000081E001C083E08093CC010E946F0B809141
:101D1000E10083FF29C08091E20083FF25C080910C
:101D2000E100877F8093E10082E08093CC011092F4
:101D3000C8018091E1008E7F8093E1008091E200F4
:101D40008E7F8093E2008091E20080618093E200C8
:101D500042E060E080E00E94F20C8091F000886038
:101D60008093F0000E94040AFF91EF91BF91AF9120
:101D70009F918F917F916F915F914F913F912F91A3
:101D80000F900FBE0F901F9018951F920F920FB6D5
:101D90000F9211242F933F934F935F936F937F93F1
:101DA0008F939F93AF93BF93CF93DF93EF93FF9363
:101DB000C091E900CF708091EC00D82FD17080FDE8
:101DC000D0E81092E9008091F000877F8093F000C6
:101DD00078940E94090F1092E9008091F0008860C9
:101DE0008093F000CD2BCF70C093E900FF91EF916D
:101DF000DF91CF91BF91AF919F918F917F916F9123
:101E00005F914F913F912F910F900FBE0F901F90B8
:101E100018951F93CF93DF93CDB7DEB7AA970FB670
:101E2000F894DEBF0FBECDBFEDECF1E088E08E0F81
:101E30009091F10091938E13FBCF0E945D0A8091E7
:101E4000E80083FF1FC18091CD019091CE01492F01
:101E500050E04A30510508F015C1FA01EA5AFF4F27
:101E60000C947429803881F0823809F00BC180917C
:101E7000D1018F708093E9008091EB0085FB88276A
:101E800080F91092E90006C08091C9019091CA01C1
:101E9000911182609091E800977F9093E800809381
:101EA000F1001092F100C8C0282F2D7F09F0EAC080
:101EB000882319F0823061F0E5C08091CF01813034
:101EC00009F0E0C0933009F080E08093CA012BC094
:101ED0008091CF01811127C08091D1018F7009F4C9
:101EE000D1C08093E9002091EB0020FF1CC093300B
:101EF00021F48091EB00806214C09091EB0090611E
:101F00009093EB0021E030E0A90102C0440F551F7F
:101F10008A95E2F74093EA001092EA008091EB0084
:101F200088608093EB001092E9008091E800877F41
:101F300086C08111A7C01091CF011F778091E30067
:101F40008078812B8093E3008091E800877F8093E5
:101F5000E8000E94270D8091E80080FFFCCF80916F
:101F6000E30080688093E300111102C082E001C0A9
:101F700083E08093CC0186C08058823008F082C014
:101F80008091CF019091D0018C3D53E0950779F578
:101F900083E08A838AE289834FB7F894DE0113963F
:101FA00020E03EE051E2E32FF0E050935700E4914F
:101FB00020FF03C0E295EF703F5FEF708E2F90E03F
:101FC000EA3010F0C79601C0C0968D939D932F5FA5
:101FD000243149F74FBF8091E800877F8093E80064
:101FE0006AE270E0CE0101960E942E0C14C0AE0190
:101FF0004F5F5F4F6091D1010E94750BBC01892B2F
:1020000009F440C09091E800977F9093E80089819F
:102010009A810E94910C8091E8008B778093E80070
:1020200031C0803879F58091E800877F8093E8009F
:102030008091C8018093F1008091E8008E778093B1
:10204000E8000E94270D1EC081111CC09091CF0195
:102050009230C0F48091E800877F8093E8009093ED
:10206000C8010E94270D8091C801811106C080918E
:10207000E30087FD02C081E001C084E08093CC01D1
:102080000E94490A8091E80083FF0AC08091E8001D
:10209000877F8093E8008091EB0080628093EB0063
:1020A000AA960FB6F894DEBF0FBECDBFDF91CF91D9
:1020B0001F91089590935E0180935D010895E091D2
:1020C0005D01F0915E01309721F00190F081E02DEB
:1020D000099480E00895EF92FF920F931F93CF939E
:1020E000DF93E0915D01F0915E013097B1F18C01D9
:1020F0000280F381E02D09958091B70182FF2DC008
:1021000080FF04C085EC93E00E940A06E80118E015
:102110008FEBE82E83E0F82E8091B70180FF0BC093
:1021200088811F928F93FF92EF920E94A3060F90D7
:102130000F900F900F90115021961111EDCF8091BB
:10214000B70180FF0AC08DEB93E0DF91CF911F9123
:102150000F91FF90EF900C940A06DF91CF911F91A1
:102160000F91FF90EF900895E0915D01F0915E0175
:10217000309721F00480F581E02D09940895209195
:102180005B0130915C018217930771F090935C01C1
:1021900080935B01E0915D01F0915E01309721F049
:1021A0000680F781E02D099408952091590130911E
:1021B0005A018217930771F090935A018093590145
:1021C000E0915D01F0915E01309721F00084F1858E
:1021D000E02D0994089508950C94EB100E94CA1CF8
:1021E0000E94CE060C94EC1E4F925F927F928F92CB
:1021F0009F92AF92BF92CF92DF92EF92FF920F9396
:102200001F93CF93DF9300D000D01F92CDB7DEB7DE
:102210000E94FD0690E6C92E91E0D92E00E010E064
:10222000AA24A394B12C702E802F0E9473084C0115
:10223000F601419051906F014826592641145104EE
:10224000B1F40F5F1F4F0630110569F78FEF8983D7
:102250008A831B820E94D31C8160782F9D838C838C
:1022600049815A816B818D810E94C71141C0809143
:10227000B70181FD0E947C0820E030E07501022E4C
:1022800002C0EE0CFF1C0A94E2F7C70184219521DD
:10229000892B41F129837A828E209F2091E0892821
:1022A00009F490E09B830E94D31C8160782F9D836A
:1022B0008C8349815A816B818D810E94C71149812C
:1022C0005A816B817C818D810E944B1C000F111FF4
:1022D000F801E05AFE4F80819181E826F926F182CB
:1022E000E08206C02F5F3F4F2031310539F6A9CF7C
:1022F0000E944A1C0E946F2210915F010E945F1091
:10230000181771F10E945F1080935F019091B701DF
:1023100092FF0EC090FF0CC01F928F9387ED93E049
:102320009F938F930E94A3060F900F900F900F9092
:1023300080915F010F900F900F900F900F90DF91A1
:10234000CF911F910F91FF90EF90DF90CF90BF90B2
:10235000AF909F908F907F905F904F900C945C1CFB
:102360000F900F900F900F900F90DF91CF911F91D2
:102370000F91FF90EF90DF90CF90BF90AF909F9024
:102380008F907F905F904F9008950C94C308CF93E7
:10239000DF93CDB7DEB72B970FB6F894DEBF0FBE35
:1023A000CDBF942F4F83252F588769877A878B87D6
:1023B0004A855B85452B21F02F3F09F59F3FF9F4B6
:1023C000DE01119686E0FD0111928A95E9F785E01C
:1023D000FE01379601900D928A95E1F749815A8165
:1023E0006B817C818D819E810E94EB182B960FB6AC
:1023F000F894DEBF0FBECDBFDF91CF9108954F811E
:10240000588569857A858B850E944B1CD9CFCF93DF
:10241000882309F4CDC0C82F823859F40E945F1078
:1024200081FDC6C089E30E94761B0E94EF1B89E3F1
:102430000CC0833879F40E945F1080FDB9C083E539
:102440000E94761B0E94EF1B83E50E94931BCF9195
:102450000C94EF1B843859F40E945F1082FDA8C0D1
:1024600087E40E94761B0E94EF1B87E4EECF8CEF7F
:102470008C0F813A48F48C2F0E94CE26811198C08F
:102480008C2F0E94761BE3CF80E28C0F883048F4BB
:10249000C77081E001C0880FCA95EAF70E94B51B9A
:1024A000D6CF8BE58C0F833078F4C53A29F0C63A45
:1024B00031F083E890E005C081E890E002C082E856
:1024C00090E0CF910C94BF1088E58C0F853108F017
:1024D0006FC0C83A61F1C93A69F1CA3A71F1CB3AB1
:1024E00079F1CC3A81F1CD3A89F1CE3A91F1CF3AF6
:1024F00099F1C13BA1F1C03BA9F1C23BB1F1C33B92
:10250000B9F1C43BC1F1C53BC9F1C63BD1F1C73BF1
:10251000D9F1C83BE1F1C93BE9F1CA3BF1F1CB3B51
:10252000F9F1CC3B09F43FC080E090E03EC082EE80
:1025300090E03BC089EE90E038C08AEE90E035C074
:1025400085EB90E032C086EB90E02FC083EB90E00B
:102550002CC084EB90E029C087EB90E026C08CEC87
:1025600090E023C08DEC90E020C083E891E01DC096
:102570008AE891E01AC082E991E017C084E991E00D
:1025800014C081E292E011C083E292E00EC084E2C6
:1025900092E00BC085E292E008C086E292E005C0BE
:1025A00087E292E002C08AE292E0CF910C94D510CB
:1025B000CF910895882309F44BC0823859F40E94C2
:1025C0005F1081FF45C089E30E94761B0E94EF1BCC
:1025D00089E30CC0833871F40E945F1080FF38C01B
:1025E00083E50E94761B0E94EF1B83E50E94931BEC
:1025F0000C94EF1B843859F40E945F1082FF28C0AE
:1026000087E40E94761B0E94EF1B87E4EFCF9CEFCC
:10261000980F913A58F390E2980F983050F48770E1
:1026200091E001C0990F8A95EAF7892F0E94BB1BA0
:10263000DFCF9BE5980F933020F480E090E00C947E
:10264000BF10885A853120F480E090E00C94D510BA
:102650000895882321F00E94B51B0C94EF1B089568
:10266000882321F00E94BB1B0C94EF1B0895CF928E
:10267000DF92EF92FF920F931F93CF93DF9300D0DF
:1026800000D000D0CDB7DEB725E0FC01DE01119609
:1026900001900D922A95E1F7FC0140813181F28091
:1026A000258122952F7063817481672B09F4D8C22C
:1026B0003F3F19F44F3F09F4D3C26C0149833A8379
:1026C00089819A812E830E94351B182F092F0E9421
:1026D000341B0E94441AE02FE295EF70F0E0E05ABC
:1026E000FF4F2E810C947429802F807F902F9F7034
:1026F000092F882311F00295007FFF2049F0002365
:1027000009F45FC2802F0E94C81B0E94EF1B59C2B0
:10271000812F0E94DA12002309F4A2C2802F0E94A6
:10272000CE1B26960FB6F894DEBF0FBECDBFDF914D
:10273000CF911F910F91FF90EF90DF90CF900C946D
:10274000EF1B802F807F902F9F70092F803211F018
:102750000295007F112319F0113001F129C0FF20EB
:10276000A9F0802F222349F1213039F526960FB6A2
:10277000F894DEBF0FBECDBFDF91CF911F910F91B7
:10278000FF90EF90DF90CF900C94D81B222319F08C
:10279000213009F465C20E94DB1B2CC0FF20E9F048
:1027A000263008F05DC20E94B21B802329F022C0AF
:1027B000FF20F1F0211115C0802F26960FB6F89456
:1027C000DEBF0FBECDBFDF91CF911F910F91FF9064
:1027D000EF90DF90CF900C942913253008F040C281
:1027E00009C0F601858180FFECC18F708583E4CF3D
:1027F0002111FBC1802F69C1202F269526952370BA
:1028000030E02115310521F021303105C9F028C211
:10281000FF2021F0812F902F937002C080E090E084
:1028200026960FB6F894DEBF0FBECDBFDF91CF91D5
:102830001F910F91FF90EF90DF90CF900C94BF10FD
:10284000FF2021F0812F902F937002C080E090E054
:1028500026960FB6F894DEBF0FBECDBFDF91CF91A5
:102860001F910F91FF90EF90DF90CF900C94D510B7
:10287000812FFF2019F00E94F52002C00E945D21E7
:1028800026960FB6F894DEBF0FBECDBFDF91CF9175
:102890001F910F91FF90EF90DF90CF900C94E22169
:1028A000802F837009F078C0F110DAC1812F8295F2
:1028B00086958770880F880F912F9F70C92ED12C15
:1028C000E12CF12C082E04C0CC0CDD1CEE1CFF1CEE
:1028D0000A94D2F714FF12C04FE050E060E070E0BD
:1028E00004C0440F551F661F771F8A95D2F7CB018E
:1028F000BA01609570958095909503C060E070E096
:10290000CB01202F269526952370422F50E0423090
:102910005105D1F04330510559F16C297D298E299B
:102920009F294130510541F126960FB6F894DEBF3C
:102930000FBECDBFDF91CF911F910F91FF90EF9010
:10294000DF90CF900C94591A6C297D298E299F29EC
:1029500026960FB6F894DEBF0FBECDBFDF91CF91A4
:102960001F910F91FF90EF90DF90CF900C946B1A16
:102970000E94591AC701B60126960FB6F894DEBF19
:102980000FBECDBFDF91CF911F910F91FF90EF90C0
:10299000DF90CF900C94471AFF2019F0802F8170A0
:1029A00001C08695882309F45BC1812F82958695A5
:1029B0008770880F880F912F9F70C92ED12CE12C22
:1029C000F12C082E04C0CC0CDD1CEE1CFF1C0A945C
:1029D000D2F714FF12C04FE050E060E070E004C096
:1029E000440F551F661F771F8A95D2F7CB01BA0196
:1029F000609570958095909503C060E070E0CB0184
:102A0000202F269526952370422F50E04230510505
:102A1000D1F04330510559F16C297D298E299F2928
:102A20004130510541F126960FB6F894DEBF0FBE36
:102A3000CDBFDF91CF911F910F91FF90EF90DF906D
:102A4000CF900C94101B6C297D298E299F292696E6
:102A50000FB6F894DEBF0FBECDBFDF91CF911F91AF
:102A60000F91FF90EF90DF90CF900C94221B0E946B
:102A7000101BC701B60126960FB6F894DEBF0FBE35
:102A8000CDBFDF91CF911F910F91FF90EF90DF901D
:102A9000CF900C94FE1A103F41F118F4103E48F408
:102AA0008BC0123F09F450C0D8F1133F09F460C045
:102AB00083C01F70802F8F71FF2021F00E94971A12
:102AC000812F7BCE0E94B81A812F26960FB6F894DC
:102AD000DEBF0FBECDBFDF91CF911F910F91FF9051
:102AE000EF90DF90CF900C943013FF20A9F02530A9
:102AF00008F0B6C0802F8F7126960FB6F894DEBF0F
:102B00000FBECDBFDF91CF911F910F91FF90EF903E
:102B1000DF90CF900C94DD1A263008F0A1C0EACFE8
:102B2000FF20A1F0802F8F7126960FB6F894DEBF9C
:102B30000FBECDBFDF91CF911F910F91FF90EF900E
:102B4000DF90CF900C94971AFF2061F3802F8F7144
:102B500026960FB6F894DEBF0FBECDBFDF91CF91A2
:102B60001F910F91FF90EF90DF90CF900C94B81AC7
:102B7000FF2091F0802F8F7126960FB6F894DEBF5C
:102B80000FBECDBFDF91CF911F910F91FF90EF90BE
:102B9000DF90CF900C94821A26960FB6F894DEBF81
:102BA0000FBECDBFDF91CF911F910F91FF90EF909E
:102BB000DF90CF900C947D1AFF20A1F0222309F41E
:102BC000B1CF812F26960FB6F894DEBF0FBECDBFD2
:102BD000DF91CF911F910F91FF90EF90DF90CF90F9
:102BE0000C940712222309F4B1CF812F26960FB639
:102BF000F894DEBF0FBECDBFDF91CF911F910F9133
:102C0000FF90EF90DF90CF900C94DA12402F4F702E
:102C1000612FC6010E948E1E26960FB6F894DEBF65
:102C20000FBECDBFDF91CF911F910F91FF90EF901D
:102C3000DF90CF900C948F19402F4F70612FC601F9
:102C400026960FB6F894DEBF0FBECDBFDF91CF91B1
:102C50001F910F91FF90EF90DF90CF900C94911EF9
:102C600026960FB6F894DEBF0FBECDBFDF91CF9191
:102C70001F910F91FF90EF90DF90CF9008950E94E9
:102C8000D51B0E94A41B0E94EF1B0E9414230E94CC
:102C9000E22180E090E00E94BF1080E090E00C9480
:102CA000D5100E94C51B0C943F160E94351B292F7E
:102CB00022952F7030E02C3031054CF42A3031054C
:102CC0006CF4225031092230310588F407C02C30D1
:102CD000310549F02F30310531F009C0803E48F010
:102CE000803F29F406C093FB882780F9089580E08F
:102CF000089581E00895CF93DF9300D000D01F9214
:102D0000CDB7DEB70F900F900F900F900F90DF911F
:102D1000CF910895CF93DF9300D000D000D0CDB7EE
:102D2000DEB726960FB6F894DEBF0FBECDBFDF919B
:102D3000CF9108951F93CF93DF93C0916C0116E05C
:102D400080916D01C81799F0D0E01C9FF0011D9F84
:102D5000F00D1124E259FE4F40815181628173814F
:102D6000848195810E948A162196C770E9CFDF91F0
:102D7000CF911F91089540919E0150919F016091C4
:102D8000A0017091A1018091A2019091A3010C94E6
:102D90008A168091A30182958F7009F054C08091AA
:102DA000A001882309F44FC080916C01A0916D01AE
:102DB00060919E0170919F014091A1015091A201EB
:102DC000B6E08A1709F43FC090E041155105C1F102
:102DD0007F3F11F46F3FA1F1B89FF001B99FF00D53
:102DE0001124E259FE4F218172132AC020816213FF
:102DF00027C02281211124C0238134812417350763
:102E000010F421503109241B350B283C3105C0F446
:102E10002091A3012F7020612093A30126E0289F19
:102E2000F001299FF00D1124ED58FE4F80818F7025
:102E3000806180838EE991E00E9437130C949A168A
:102E400001968770BECF0895CF92DF92EF92FF92E6
:102E50000F931F93CF93DF93CDB7DEB762970FB673
:102E6000F894DEBF0FBECDBF8C0185E0F801DE0116
:102E70001D9601900D928A95E1F7D8014C9111961B
:102E80005C91119712966C9112971396CD90DC90ED
:102E9000149730919E0170919F018091A1019091B2
:102EA000A201009709F46BC17F3F19F43F3F09F479
:102EB00066C1E090A001EE2009F4C0C02091A301FA
:102EC000C816D90628F0F601E81BF90BCF0104C09B
:102ED000809590958C0D9D1DFF24F394883C910561
:102EE00078F0F12C207F09F0C6C07C2DD98AC88AE1
:102EF00089890E947B168EE991E00E943713B1C048
:102F0000822F807F09F046C0751314C0341312C09D
:102F1000611110C02F7020612093A3010E94BB1685
:102F20008EE991E00E9437138091A301D801159694
:102F30008C932EC0CD2819F15F3F11F44F3FF9F06B
:102F4000F62E61111CC080916C0120916D0136E05C
:102F5000821709F45AC090E0389FF001399FF00DB4
:102F60001124E259FE4F7181571306C07081471337
:102F700003C07281711103C001968770E9CFF62EEC
:102F8000662309F418C18091A30181608093A30195
:102F9000F12C11C1751308C0341306C0611104C0AF
:102FA0008091A301D801C3C04D875E878D859E8522
:102FB0006A8B0E9455166A898823E1F16623D1F154
:102FC0002091A301822F82958F7090E0029774F078
:102FD00080919E0190919F0198878F831986DB864F
:102FE000CA862C87CE0107960E94371386E0F80127
:102FF000AEE9B1E001900D928A95E1F70E94C91601
:103000000E94BB16FF24F394D6C04D875E878D8542
:103010009E850E94351B292F22952F7030E022308B
:1030200031050CF0BCC09F7009F0B6C0805E8830DE
:1030300008F4C1C0C8010E943713E4CFC816D906EE
:1030400008F453C0F601E81BF90BCF01883C910549
:1030500008F450C0F12C7C2DD98AC88A89890E9435
:103060007B16EEE9F1E086E0DF011D928A95E9F733
:103070000E94BB16A0C0751314C0341312C0611196
:1030800010C08091A301F8018583C8010E94371305
:1030900086E0EEE9F1E0DF011D928A95E9F7FE2C6A
:1030A0008AC04D875E878D859E856A8B0E945516E6
:1030B0006A89882309F4BECF662309F4BBCF209127
:1030C000A301822F82958F7090E002970CF48ECF2F
:1030D00080919E0190919F019A8389831B82DD825A
:1030E000CC822E83CE0101967FCF809590958C0D5A
:1030F0009D1DACCFF62E662309F49CCF75132EC010
:1031000034132CC02091A30120FD1FC0822F829573
:103110008F70D9F0D80115962C9315978F3049F000
:103120008F5F982F9295907F822F8F70892B1596A5
:103130008C93C8010E94371386E0F801AEE9B1E034
:1031400001900D928A95E1F793CF86E0F801AEE900
:10315000B1E001900D928A95E1F72DC04D875E8711
:103160008D859E850E945516811140CF8091A301C7
:1031700081608093A301C8010E9437131CC066239D
:1031800009F458CF4D875E878D859E850E94551620
:10319000882309F44FCF2ACF811148CF0CC02430A7
:1031A00031050CF047CF9F7009F440CFF8019581AD
:1031B000907F09F03BCF8F2D62960FB6F894DEBF5B
:1031C0000FBECDBFDF91CF911F910F91FF90EF9078
:1031D000DF90CF9008951F93CF93DF93CDB7DEB7E5
:1031E0002C970FB6F894DEBF0FBECDBF4F83588724
:1031F00069877A878B879C87CE0107960E94241760
:10320000882369F08F8198852A853B85232BF1F1EE
:103210009F3F09F063C08F3F09F060C037C086E070
:10322000FE013796DE01119601900D928A95E1F725
:103230006F817885EA85FB85309741F17F3F11F4F6
:103240006F3F21F120916D0130E0C9010196877037
:10325000992740916C0150E08417950709F447C005
:1032600069837A83FD83EC8396E0929FD001939FDC
:10327000B00D1124A259BE4FFE01319601900D925E
:103280009A95E1F780936D010E949A1616E080915D
:103290006C0190916D018917C1F1189FC001112433
:1032A00082599E4F0E942417882379F1E0916C0186
:1032B0001E9FF0011124E259FE4F4081518162812D
:1032C0007381848195810E948A1680916C0190E0BF
:1032D00001968770992780936C01D9CF4F815885CB
:1032E00069857A858B859C850E948A16CFCF0E943E
:1032F000511610926D0110926C01EEE9F1E086E03A
:10330000DF011D928A95E9F7C1CF2C960FB6F8948C
:10331000DEBF0FBECDBFDF91CF911F910895DF9229
:10332000EF92FF920F931F93CF93DF93FC01892BB2
:1033300009F48AC0E12CF12CDD24D394EF0121960D
:103340008491853709F461C058F4843708F04EC081
:10335000843008F06AC08130D1F0823071F174C0DD
:10336000883709F45DC050F4863709F455C08737B3
:1033700009F06AC08E2D0E94C21B54C09CE7980FB2
:10338000903708F061C08F770E94DA1250C08F0129
:103390000E5F1F4FFE01849190E2980F983050F419
:1033A0008770FD2D01C0FF0F8A95EAF78F2F0E94CD
:1033B000C81B14C00E94071213C08F010E5F1F4F5D
:1033C000FE01C49180E28C0F883060F4C7708D2DAF
:1033D00001C0880FCA95EAF70E94CE1B0E94EF1B1E
:1033E000E80125C08C2F0E94DA12FACF9F012E5FD0
:1033F0003F4FFE01C491CC2369F08FE99FE0019714
:10340000F1F700C00000C150F6CF9F012E5F3F4F83
:10341000FE01F490E9010BC00E94B21BE82E07C028
:103420000E94C51B0E94EF1B02C00E9407128F2D35
:10343000882341F0EFE9FFE03197F1F700C0000089
:103440008150F6CFFE017ACFDF91CF911F910F917E
:10345000FF90EF90DF9008956093A8017093A90109
:103460008093AA019093AB010E945A1C0C943F16C2
:103470006093A4017093A5018093A6019093A70186
:103480000E945B1C0C943F1608950C942C1A0F9309
:103490001F930091A8011091A9012091AA013091D8
:1034A000AB01602B712B822B932B1F910F910C94EE
:1034B0002C1A0F931F930091A8011091A90120913C
:1034C000AA013091AB0160237123822393231F91C2
:1034D0000F910C942C1A0F931F930091A801109137
:1034E000A9012091AA013091AB01602771278227A1
:1034F00093271F910F910C942C1A60E070E0CB0180
:103500000C94381A0F931F9341E050E060E070E094
:103510008A019B0104C0000F111F221F331F8A95CF
:10352000D2F7C901B8011F910F910C94381A0F936B
:103530001F9341E050E060E070E004C0440F551F6D
:10354000661F771F8A95D2F78091A4019091A501FB
:10355000A091A601B091A7018A019B01082B192B0C
:103560002A2B3B2BC901B8011F910F910C94381ADB
:103570000F931F9341E050E060E070E004C0440FFF
:10358000551F661F771F8A95D2F740955095609515
:1035900070958091A4019091A501A091A601B09190
:1035A000A7018A019B01082319232A233B23C90170
:1035B000B8011F910F910C94381A0F931F9341E09B
:1035C00050E060E070E004C0440F551F661F771F95
:1035D0008A95D2F78091A4019091A501A091A601AE
:1035E000B091A7018A019B01082719272A273B27A9
:1035F000C901B8011F910F910C94381A0F931F93B2
:103600000091A4011091A5012091A6013091A7017C
:10361000602B712B822B932B1F910F910C94381AD6
:103620000F931F930091A4011091A5012091A60171
:103630003091A70160237123822393231F910F915F
:103640000C94381A0F931F930091A4011091A501B7
:103650002091A6013091A701602771278227932727
:103660001F910F910C94381A0895CF92DF92EF9228
:10367000FF920F931F93CF93DF938C01C090A8010B
:10368000D090A901E090AA01F090AB014091A40173
:103690005091A5016091A6017091A701C42AD52A75
:1036A000E62AF72ACFE1D0E0D701C6010C2E04C0EC
:1036B000B695A795979587950A94D2F780FF07C08E
:1036C000B8018C2F0E941B1E8130910531F4219787
:1036D00058F7B80180E00E941B1EDF91CF911F9127
:1036E0000F91FF90EF90DF90CF90089520910C0103
:1036F00030910D01F90132969FEF40E0519158173A
:1037000089F09F3F19F4511101C0942F4F5F46304B
:10371000A9F79F3F39F0F901E90FF11D97FDFA95DF
:1037200082830895089520910C0130910D01F901D3
:103730003296285F3F4F9081981301C010823196D6
:10374000E217F307C1F7089581E090E0E0910C01E2
:10375000F0910D01E80FF91F108201968830910554
:10376000A9F708958091B60108959091B601892B2B
:103770008093B601089580959091B6018923809336
:10378000B60108958093B60108951092B601089588
:103790009091B501892B8093B50108958095909102
:1037A000B50189238093B50108951092B50108955C
:1037B0008093AC0108951092AC01089580910C01A2
:1037C00090910D01FC0131969C01285F3F4F80E0F4
:1037D000919191118F5FE217F307D1F70895E0916E
:1037E0000C01F0910D018091B6018083E0910C01F4
:1037F000F0910D0190818091B501892B808380919A
:10380000AC01882361F0E0910C01F0910D019081F1
:10381000892B80830E94DE1B81111092AC01809164
:103820000C0190910D010C946B10909333018093D7
:10383000320108958295982F9C7C392F36953695C4
:10384000282F237344E0249FC0011124932F982B29
:10385000292F2A7A2695892F8575880F822B08951E
:103860001F93CF93DF931F92CDB7DEB799830E944A
:103870001A1C182F9981892F0E941A1C212F30E0C1
:10388000322F2227A901482BCA010F90DF91CF9137
:103890001F9108950895CF93DF9300D000D01F9219
:1038A000CDB7DEB70F900F900F900F900F90DF9174
:1038B000CF910895089508950C94C51108958091AD
:1038C000CC01843021F11092B80120E488E190E02D
:1038D0000FB6F894A895809360000FBE2093600007
:1038E00083B7817F846083BF83B7816083BF78940F
:1038F000889583B78E7F83BF0FB6F894A895809183
:103900006000886180936000109260000FBE08958F
:1039100008950895CF930E94881C0E94FD060E947E
:10392000891CC0E08C2F0E947308892B29F4CF5F7B
:10393000C630C1F780E001C081E0CF9108950C94BA
:1039400051161F920F920FB60F9211248F939F93CF
:10395000AF93BF938091B801811113C08091B901D9
:103960009091BA01A091BB01B091BC014196A11DFB
:10397000B11D8093B9019093BA01A093BB01B0939C
:10398000BC01BF91AF919F918F910F900FBE0F908F
:103990001F90189582E084BD93E095BD9AEF97BD86
:1039A00080936E0008952FB7F8948091B90190919B
:1039B000BA01A091BB01B091BC012FBF08952FB7F0
:1039C000F8946091B9017091BA018091BB01909116
:1039D000BC012FBF0895CF92DF92EF92FF920F9319
:1039E0001F932FB7F8944091B9015091BA0160919B
:1039F000BB017091BC012FBF6A017B01EE24FF2443
:103A00008C0120E030E0C016D106E206F30610F487
:103A1000415051099A01281B390BC9011F910F917F
:103A2000FF90EF90DF90CF9008951F920F920FB606
:103A30000F9211248F939F93AF93BF938091B901FD
:103A40009091BA01A091BB01B091BC010196A11D5A
:103A5000B11D8093B9019093BA01A093BB01B093BB
:103A6000BC01BF91AF919F918F910F900FBE0F90AE
:103A70001F9018950E94780DF8942FEF87EA91E631
:103A8000215080409040E1F700C0000087E090EBBB
:103A9000DC018093D6019093D701A093D801B09315
:103AA000D9019CE088E10FB6F894A8958093600056
:103AB0000FBE90936000FFCF8D3B50F4883A70F5B5
:103AC000853A18F58430F8F4813009F46CC068C088
:103AD000883E98F4803EB8F48F3B09F061C00E94A4
:103AE00051162FEF80E792E0215080409040E1F79F
:103AF00000C000000E943A1D53C0803F08F450C02F
:103B000090E09065089590E00895853A09F44EC0DC
:103B1000863A09F44EC083E890E40895883A09F49F
:103B20004BC0893A09F44BC08A3A09F44BC08B3A2E
:103B300009F44BC08C3A09F44BC08D3A09F44BC0E0
:103B40008E3A09F44BC08F3A09F44BC0813B09F41B
:103B50004BC0803B09F44BC0823B09F44BC0833B14
:103B600009F44BC0843B09F44BC0853B09F44BC0BE
:103B7000863B09F44BC0873B09F44BC0883B09F4F2
:103B80004BC0893B09F44BC08A3B09F44BC08B3BCB
:103B900009F44BC08C3B09F44BC080E094E40895D9
:103BA00080E090E0089581E090E0089581E890E45D
:103BB000089582E890E4089582EE94E4089589EEF1
:103BC00094E408958AEE94E4089585EB94E40895CE
:103BD00086EB94E4089583EB94E4089584EB94E4F5
:103BE000089587EB94E408958CEC94E408958DECAB
:103BF00094E4089583E895E408958AE895E40895A7
:103C000082E995E4089584E995E4089581E296E4D3
:103C1000089583E296E4089584E296E4089585E2A7
:103C200096E4089586E296E4089587E296E408957E
:103C30008AE296E408950E94AC06803EA8F4803C97
:103C400000F5813309F45CC038F4893209F452C0BC
:103C50008A3209F45BC05FC08933B1F08238A1F0C9
:103C6000853309F441C057C0833E41F128F4803EBA
:103C700099F0823EB9F04FC0863E31F1873E71F136
:103C80004AC00E94BE0608959091D50190FD02C0E1
:103C900091FF41C080EE3FC08091D50180FFFACFF7
:103CA00089E339C08091D50182FF0CC08091D50194
:103CB00084FF02C080E02FC083EE2DC08091D5012B
:103CC00082FFF4CF82EE27C08091D50183FF0AC026
:103CD0008091D50184FDEECF87EE1DC08091D50186
:103CE00083FFF6CF86EE17C08091D50185FF06C011
:103CF00089E211C08091D50185FFFACF85E30BC021
:103D00008091D50186FF06C08AE205C08091D50169
:103D100086FFFACF81E30E945C1D089580E090E069
:103D200008950895AF92BF92CF92DF92EF92FF92E3
:103D30000F931F93CF937C01C0E0CC24C394D12C6C
:103D40008C2F0E9473085C0100E010E0C601002E79
:103D500002C0880F991F0A94E2F78A219B21892BC0
:103D6000B1F0602F7C2F80E00E941B1E9C018E15FD
:103D70009F0559F0832F807E932F907C11F0803A1D
:103D800031F430E02E153F0511F481E009C00F5FDA
:103D90001F4F00311105D1F6CF5FC63089F680E0A4
:103DA000CF911F910F91FF90EF90DF90CF90BF9038
:103DB000AF900895CF93DF93EC018CE290E00E94E6
:103DC000921E882329F0CE01DF91CF910C94921E90
:103DD00080E0DF91CF910895CF930E944D20811113
:103DE00002C00E94332089EE93E00E940A06C5E6D5
:103DF000C15049F00E94FD068FE39CE90197F1F75D
:103E000000C00000F5CF82EE93E00E940A0689E22E
:103E100090E00E94DA1E811124C18AE290E00E94A3
:103E2000DA1E81110E94332085E090E00E94DA1EA4
:103E300081110E943A1D0E945E1C0E9458208093AE
:103E4000B70187E090E00E94DA1E8823C1F18BE180
:103E500090E00E94DA1E882351F08091B70181FB27
:103E6000222720F991E0922790FB81F90FC08EE084
:103E700090E00E94DA1E882361F08091B70182FBF6
:103E8000222720F991E0922790FB82F98093B701D5
:103E900016C080E190E00E94DA1E9091B70188235D
:103EA00041F093FB222720F981E0822780FB93F9E0
:103EB00004C0892F809580FB90F99093B701809181
:103EC000B7010E945C200E946A208093D50180EE99
:103ED00090E00E94DA1E882341F08091D501982F4E
:103EE000909590FB80F98093D50189E390E00E9442
:103EF000DA1E882359F08091D50181FB222720F911
:103F000091E0922790FB81F98093D50182EE90E0B9
:103F10000E94DA1E882359F08091D50182FB222766
:103F200020F991E0922790FB82F98093D50186EEEB
:103F300090E00E94DA1E882359F08091D50183FB1E
:103F4000222720F991E0922790FB83F98093D501F5
:103F500083EE90E00E94DA1E882359F08091D5010B
:103F600084FB222720F991E0922790FB84F980932B
:103F7000D50185E390E00E94DA1E882359F08091F4
:103F8000D50185FB222720F991E0922790FB85F946
:103F90008093D50181E390E00E94DA1E882359F0D6
:103FA0008091D50186FB222720F991E0922790FB92
:103FB00086F98093D50181E190E00E94DA1E882382
:103FC00059F08091D50187FB222720F991E09227B3
:103FD00090FB87F98093D5018091D5010E946E20D6
:103FE00087E290E00E94DA1EC82F8EE190E00E94E6
:103FF000DA1E8111C2608FE190E00E94DA1E811109
:10400000C46080E290E00E94DA1E8111C86081E203
:1040100090E00E94DA1E8111C06182E290E00E946D
:10402000DA1E8111C06283E290E00E94DA1E8111E3
:10403000C06484E290E00E94DA1E882311F0C06818
:1040400002C0CC2329F08C2F0E9465206C2F03C066
:104050000E946120682F70E080E090E0CF910C9486
:10406000451ACF9108956DEE7EEF80E090E00E94BA
:10407000AA2960E082E090E00E949C2960E083E051
:1040800090E00E949C2960E084E090E00E949C29DE
:1040900060E085E090E00C949C2980E090E00E9434
:1040A000962921E08D3E9E4F09F020E0822F089551
:1040B00082E090E00C948E29682F82E090E00C94CE
:1040C0009C2983E090E00C948E29682F83E090E097
:1040D0000C949C2984E090E00C948E29682F84E055
:1040E00090E00C949C298091BF0180FF0BC06091EF
:1040F000110185E0689FB00111247595679575954C
:1041000067952BC081FF09C06091110185E0689F10
:10411000B00111247595679520C082FF07C060919A
:10412000110185E0689FB001112417C09091C00172
:104130009923D1F060911001961788F72091110111
:1041400085E0289F90011124929FA001939F500D1C
:10415000112470E0CA010E9460296038710540F4A2
:104160006115710539F002C065E070E0862F089591
:104170008FE7089581E008958091BF0180FF08C016
:1041800060910F0170E0759567957595679521C0F1
:1041900081FF06C060910F0170E07595679519C0A9
:1041A00082FF04C060910F0170E010C09091C001C7
:1041B0009923C1F060910E019617A0F780910F012D
:1041C000899FC001112470E00E9460296038710548
:1041D00028F46115710521F0862F08958FE7089561
:1041E00081E0089561E070E0F4CF803F21F40E9407
:1041F0007320819504C0813F29F40E94732080932D
:10420000C3010895823F21F40E947320819504C068
:10421000833F29F40E9473208093C2010895893F4F
:1042200019F40E94BC2005C08A3F31F40E94BC20D2
:1042300081958093C40108958B3F21F40E94BC2096
:10424000819504C08C3F29F40E94BC208093C50155
:104250000895843F21F48091C101816017C0853F9A
:1042600021F48091C101826011C0863F21F48091C8
:10427000C10184600BC0873F21F48091C101886037
:1042800005C0883F31F48091C10180618093C101F4
:1042900008958D3F21F48091BF0181600BC08E3F56
:1042A00021F48091BF01826005C08F3F29F4809185
:1042B000BF0184608093BF010895803F39F48091ED
:1042C000C30187FF6CC01092C30169C0813F29F40C
:1042D0008091C3011816BCF362C09091C201823F65
:1042E00029F497FF5CC01092C20159C0833F19F4B2
:1042F0001916CCF354C0893F41F48091C4011816BB
:104300000CF04DC01092C4014AC08A3F29F480913C
:10431000C40187FF44C0F6CF8B3F39F48091C501BB
:1043200087FF3DC01092C5013AC08C3F29F48091AF
:10433000C5011816BCF333C0843F21F48091C1013C
:104340008E7F17C0853F21F48091C1018D7F11C000
:10435000863F21F48091C1018B7F0BC0873F21F400
:104360008091C101877F05C0883F31F48091C101F0
:104370008F7E8093C10113C08D3F21F48091BF01D6
:104380008E7F0BC08E3F21F48091BF018D7F05C0D1
:104390008F3F29F48091BF018B7F8093BF01809173
:1043A000C20181110EC08091C30181110AC08091A8
:1043B000C401811106C08091C501811102C0109213
:1043C000C00108958091B70183FF7EC085E294E02B
:1043D0000E940A068091C1011F928F9380E294E0AF
:1043E0009F938F930E94A3068EE194E00E940A0699
:1043F0008091C201282F082E000C330B3F938F931E
:104400008BE194E09F938F930E94A30689E194E04F
:104410000E940A068091C301282F082E000C330B3E
:104420003F938F9386E194E09F938F930E94A3061E
:1044300084E194E00E940A068091C401282F082E8E
:10444000000C330B3F938F9381E194E09F938F9304
:104450000E94A3068FE094E00E940A068091C501A5
:10446000282F082E000C330B3F938F938CE094E0A1
:104470009F938F930E94A30689E094E00E940A060E
:104480008091C0011F928F9386E094E09F938F9359
:104490000E94A30684E094E00E940A068091BF0176
:1044A0001F928F9381E094E09F938F930E94A306C5
:1044B0008EEF93E00E940A068DB79EB74C960FB61A
:1044C000F8949EBF0FBE8DBF81EC91E00E94B410A6
:1044D0000E94D31C9093BE018093BD0108951F9349
:1044E000CF93DF938091BD019091BE010E94EB1CA0
:1044F000AC019091C001992321F02091120130E08C
:1045000006C0209113018AE0289F900111244217D0
:10451000530708F485C08091C201C091C301D091B6
:10452000C4011091C501811107C0C11175C0D1111D
:1045300073C0111171C074C09F3F19F09F5F9093B9
:10454000C001181624F40E9473208093C201809148
:10455000C20187FF05C00E94732081958093C2012C
:104560001C1624F40E9473208093C3018091C30120
:1045700087FF05C00E94732081958093C3016091DD
:10458000C201662331F1C091C301CC2311F1062E83
:10459000000C770B880B990B0E945B2823E333E315
:1045A00043E35FE30E94BF280E9423286093C20177
:1045B0006C2FCC0F770B880B990B0E945B2823E3A1
:1045C00033E343E35FE30E94BF280E942328609304
:1045D000C3011D1624F40E94BC208093C401809165
:1045E000C40187FF05C00E94BC2081958093C4014F
:1045F000111624F40E94BC208093C5018091C5014E
:1046000087FF05C00E94BC2081958093C501DF9182
:10461000CF911F910C94E2219F3F09F08FCF97CF4C
:10462000DF91CF911F910895E1ECF1E085E0DF018A
:104630001D928A95E9F71092C0011092BF0108956A
:1046400088E496E00E940A061F9281E08F931F92F1
:1046500085E08F938AEF95E09F938F930E94A30646
:104660000F900F900F900F900F900F900895833040
:10467000E9F128F4813061F0823009F10895853044
:1046800009F462C008F449C0863009F474C0089582
:1046900080911301262F30E0280F311D2F3F310567
:1046A00024F4680F6093130103C08FEF809313010C
:1046B000809113011F928F9383E395E072C08091E4
:1046C0001201262F30E0280F311D2F3F310524F431
:1046D000680F6093120103C08FEF809312018091E5
:1046E00012011F928F9381E295E05BC080911101CE
:1046F000262F30E0280F311D2F3F310524F4680F9D
:104700006093110103C08FEF80931101809111011B
:104710001F928F938EE095E044C080911001262F68
:1047200030E0280F311D2F3F310524F4680F6093CE
:10473000100103C08FEF80931001809110011F9230
:104740008F9389EF94E02DC080910F01262F30E0E8
:10475000280F311D2F3F310524F4680F60930F019E
:1047600003C08FEF80930F0180910F011F928F93F1
:1047700080EE94E016C080910E01262F30E0280FC5
:10478000311D2F3F310524F4680F60930E0103C0E3
:104790008FEF80930E0180910E011F928F9385EC15
:1047A00094E09F938F930E94A3060F900F900F9019
:1047B0000F900895833081F128F4813059F08230D0
:1047C000D1F00895853009F449C0B8F1863009F474
:1047D00056C0089580911301681720F4861B8093BA
:1047E000130102C010921301809113011F928F9345
:1047F00086EB94E054C080911201681720F4861B68
:104800008093120102C010921201809112011F9236
:104810008F9384EA94E043C080911101681720F4DB
:10482000861B8093110102C0109211018091110129
:104830001F928F9381E994E032C080911001681734
:1048400020F4861B8093100102C010921001809109
:1048500010011F928F938CE794E021C080910F018B
:10486000681720F4861B80930F0102C010920F017D
:1048700080910F011F928F9383E694E010C0809186
:104880000E01681720F4861B80930E0102C010925F
:104890000E0180910E011F928F9388E494E09F9304
:1048A0008F930E94A3060F900F900F900F90089582
:1048B000CF93C82F1F928F938DE497E09F938F9390
:1048C0000E94A30681E090E0A0E0B0E0BC01CD0131
:1048D00004C0660F771F881F991FCA95D2F70E94E0
:1048E000451A0F900F900F900F90CF910C94511686
:1048F000CF938732B0F58E3108F040C28E3009F484
:10490000BEC100F5873009F48DC1A8F4863009F0E6
:1049100039C28091B701817F8E7F8093B70182E594
:1049200097E00E940A068AE59BE00E940A0681E061
:104930008093C70175C1883009F43FC08B3009F4FA
:104940006BC120C2863109F4E0C120F4803109F442
:10495000AAC118C2893109F4C1C18B3109F47BC1E4
:1049600011C2883309F458C150F4893209F404C2E1
:10497000853309F401C2873209F004C2FDC18334D2
:1049800009F4FAC128F48A3308F4FCC18953F7C149
:10499000883409F0F7C10E94511689E49BE00E9417
:1049A0000A069FEF23ED80E3915020408040E1F71D
:1049B00000C000000E943A1D33C18EE59BE00E94BA
:1049C0000A0689E499E00E940A060E9461201F926B
:1049D0008F9386E499E09F938F930E94A30684E4CB
:1049E00099E00E940A060E945820C82F81E399E0AE
:1049F0000E940A061F92CF938CE299E09F938F93B7
:104A00000E94A3068AE299E00E940A0680E299E0E9
:104A10000E940A068C2F81701F928F938DE199E07E
:104A20009F938F930E94A3068BE199E00E940A0650
:104A300081E199E00E940A06C1FB882780F91F9254
:104A40008F938EE099E09F938F930E94A3068CE052
:104A500099E00E940A0680E099E00E940A06C2FBE3
:104A6000882780F91F928F938DEF98E09F938F9303
:104A70000E94A3068BEF98E00E940A0682EF98E05E
:104A80000E940A06C3FBCC27C0F91F92CF938FEE7A
:104A900098E09F938F930E94A3068DEE98E00E946A
:104AA0000A060E946A20C82F89ED98E00E940A0633
:104AB0001F92CF9384ED98E09F938F930E94A3065B
:104AC00082ED98E00E940A0689EB98E00E940A06AF
:104AD0008C2F81701F928F9386EB98E09F938F931A
:104AE0000E94A3068DB79EB780960FB6F8949EBF1E
:104AF0000FBE8DBF84EB98E00E940A068DE998E016
:104B00000E940A06C1FB882780F91F928F938AE9C9
:104B100098E09F938F930E94A30688E998E00E94F3
:104B20000A0686E898E00E940A06C2FB882780F9F8
:104B30001F928F9383E898E09F938F930E94A30620
:104B400081E898E00E940A068FE698E00E940A0633
:104B5000C3FB882780F91F928F938CE698E09F9380
:104B60008F930E94A3068AE698E00E940A0680E6D8
:104B700098E00E940A06C4FB882780F91F928F9351
:104B80008DE598E09F938F930E94A3068BE598E0B4
:104B90000E940A0689E498E00E940A06C5FB88275D
:104BA00080F91F928F9386E498E09F938F930E94E1
:104BB000A30684E498E00E940A0688E298E00E9436
:104BC0000A06C6FB882780F91F928F9385E298E03A
:104BD0009F938F930E94A30683E298E00E940A06A7
:104BE0008BE198E00E940A06C7FBCC27C0F91F9210
:104BF000CF9388E198E09F938F930E94A30686E16C
:104C000098E00E940A068DB79EB74C960FB6F894AE
:104C10009EBF0FBE8DBF04C089E797E00E940A06C1
:104C2000C1E0B5C08091B701C82FC17080FF09C035
:104C30008CE39BE00E940A068091B701817F8E7F02
:104C400047C080E39BE00E940A068091B701816023
:104C50008093B701E5CF9091B70191FBCC27C0F9C4
:104C600081E0C827892FC0FB81F98093B701CC234D
:104C700019F083E29BE027C085E19BE0CFCF9091C4
:104C8000B70192FBCC27C0F981E0C827892FC0FB70
:104C900082F98093B701CC2319F086E09BE013C022
:104CA00086EF9AE0BBCF9091B70193FBCC27C0F978
:104CB00081E0C827892FC0FB83F98093B701CC23FB
:104CC00051F08AEE9AE00E940A068091B701816055
:104CD0008093B7015CC08DED9AE0A0CF8EEC9AE096
:104CE0000E940A068BE99AE00E940A0689E59AE08A
:104CF0000E940A0682E39AE00E940A0682EF99E087
:104D00000E940A0684EC99E089CF86EB99E00E9424
:104D10000A060E945F101F928F938CE999E09F937F
:104D20008F930E94A30680910B011F928F9385E8B9
:104D300099E09F938F930E94A306809158011F9240
:104D40008F9382E799E09F938F930E94A3060E941E
:104D5000DF1C9F938F937F936F938BE599E09F93D5
:104D60008F930E94A3068DB79EB742960FB6F89414
:104D70009EBF0FBE8DBF54CF80E001C08D510E94F9
:104D800058244ECF89E599E00E940A06C0E08C2F96
:104D9000CF91089580E0089580E00895CF93C82FC3
:104DA0008091C701813071F020F0823009F44BC04E
:104DB00042C1E0910C01F0910D018081823209F035
:104DC0003CC107C0E0910C01F0910D01808182325D
:104DD00061F48C2F0E94CA26811104C08C2F0E947E
:104DE00078242FC081E090E02CC08C2F0E94CC262C
:104DF000811126C0C431E1F070F4CB3081F0C031B4
:104E0000D1F40E94202385E497E00E940A0682E004
:104E10008093C70115C0C93259F0C83361F482E5E7
:104E200097E00E940A0689E497E00E940A0608C0FB
:104E30001092C70104C183E497E00E940A06FFC0F4
:104E400081E08170FEC0C43228F5CE3108F0C1C0C7
:104E5000CB30A1F1D0F4C73009F0D3C08EE18093FC
:104E6000130182E3809312018AE08093110184E1AF
:104E70008093100188E080930F0188E280930E01F7
:104E800089EE95E00E940A06BFC0C33149F1C431E2
:104E9000C1F0B7C0CB3409F4A9C028F4C93289F0F5
:104EA000C83361F0AEC0C13509F49EC0C23509F403
:104EB00099C0CE3409F0A5C06AE09EC00E942023AC
:104EC000A3C08091C601882319F01092C6019CC02E
:104ED00086EF95E00E940A0681E08093C701B1C089
:104EE00080ED95E00E940A068EEB95E00E940A068E
:104EF000809113011F928F938BEB95E09F938F937B
:104F00000E94A30689EB95E00E940A0687EA95E0D5
:104F10000E940A06809112011F928F9384EA95E005
:104F20009F938F930E94A30682EA95E00E940A064F
:104F300083E995E00E940A06809111011F928F93E8
:104F400080E995E09F938F930E94A3068EE895E0F9
:104F50000E940A068DE795E00E940A0680911001E2
:104F60001F928F938AE795E09F938F930E94A306E9
:104F700088E795E00E940A0683E695E00E940A060B
:104F800080910F011F928F9380E695E09F938F93FE
:104F90000E94A3068EE595E00E940A0687E495E04C
:104FA0000E940A0680910E011F928F9384E495E07F
:104FB0009F938F930E94A30682E495E00E940A06C5
:104FC0008DB79EB748960FB6F8949EBF0FBE8DBFA3
:104FD0001BC0CE51EC2FF0E0E85DFE4F8081809346
:104FE000C60112C061E003C061E006C06AE08091C2
:104FF000C6010E94372308C08091C6010E94DA23AF
:1050000003C087EE95E013C08091C601882369F044
:105010001F928F9381EE95E09F938F930E94A3063A
:105020000F900F900F900F9004C08EED95E00E94AE
:105030000A0681E006C01092C70180E002C080E04D
:1050400000CFCF9108950E942A286894B1110C9442
:10505000B92808950E949E2888F09F5798F0B92F8C
:105060009927B751B0F0E1F0660F771F881F991F9D
:105070001AF0BA95C9F714C0B13091F00E94B8285F
:10508000B1E008950C94B828672F782F8827B85F6F
:1050900039F0B93FCCF3869577956795B395D9F7F5
:1050A0003EF490958095709561957F4F8F4F9F4FFF
:1050B0000895E89409C097FB3EF49095809570950B
:1050C00061957F4F8F4F9F4F9923A9F0F92F96E954
:1050D000BB279395F695879577956795B795F111C9
:1050E000F8CFFAF4BB0F11F460FF1BC06F5F7F4F66
:1050F0008F4F9F4F16C0882311F096E911C0772378
:1051000021F09EE8872F762F05C0662371F096E880
:10511000862F70E060E02AF09A95660F771F881F4F
:10512000DAF7880F9695879597F9089557FD905867
:10513000440F551F59F05F3F71F04795880F97FB5B
:10514000991F61F09F3F79F0879508951216130615
:105150001406551FF2CF4695F1DF08C01616170644
:105160001806991FF1CF8695710561050894089579
:10517000E894BB2766277727CB0197F908950E940B
:10518000D2280C9443290E94352938F00E943C29EA
:1051900020F0952311F00C942C290C943229112421
:1051A0000C94B9280E94962870F3959FC1F3950F2F
:1051B00050E0551F629FF001729FBB27F00DB11D9B
:1051C000639FAA27F00DB11DAA1F649F6627B00D2B
:1051D000A11D661F829F2227B00DA11D621F739F14
:1051E000B00DA11D621F839FA00D611D221F749F22
:1051F0003327A00D611D231F849F600D211D822F69
:10520000762F6A2F11249F5750409AF0F1F088238F
:105210004AF0EE0FFF1FBB1F661F771F881F9150BC
:105220005040A9F79E3F510580F00C942C290C9416
:10523000B9285F3FE4F3983ED4F386957795679558
:10524000B795F795E7959F5FC1F7FE2B880F911DE6
:105250009695879597F9089597F99F6780E870E08C
:1052600060E008959FEF80EC089500240A941616DC
:10527000170618060906089500240A941216130644
:10528000140605060895092E0394000C11F48823D2
:1052900052F0BB0F40F4BF2B11F460FF04C06F5FEE
:1052A0007F4F8F4F9F4F0895991B79E004C0991F3E
:1052B000961708F0961B881F7A95C9F78095089570
:1052C00097FB072E16F4009407D077FD09D00E94B3
:1052D0007A2907FC05D03EF4909581959F4F08955B
:1052E000709561957F4F0895EE0FFF1F0590F49123
:1052F000E02D0994AA1BBB1B51E107C0AA1FBB1FCD
:10530000A617B70710F0A61BB70B881F991F5A9551
:10531000A9F780959095BC01CD010895F999FECF2C
:1053200092BD81BDF89A992780B50895A8E1B0E0B3
:1053300042E050E00C94B129262FF999FECF1FBA14
:1053400092BD81BD20BD0FB6F894FA9AF99A0FBEAE
:10535000019608950E949C29272F0C949D29DC0119
:10536000CB01FC01F999FECF06C0F2BDE1BDF89A70
:10537000319600B40D9241505040B8F70895F8941A
:02538000FFCF5D
:1053820005CA08BB0998096409300901AD0128085A
:10539200140A321E404D36227D033003FA02D8022F
:1053A20064027D029602AF020102030405060708A9
:0253B2000900F0
:00000001FF
